{
  "contractName": "Blog",
  "abi": [
    {
      "inputs": [],
      "stateMutability": "nonpayable",
      "type": "constructor"
    },
    {
      "anonymous": false,
      "inputs": [
        {
          "indexed": false,
          "internalType": "uint256",
          "name": "id",
          "type": "uint256"
        },
        {
          "indexed": false,
          "internalType": "string",
          "name": "title",
          "type": "string"
        },
        {
          "indexed": false,
          "internalType": "string",
          "name": "body",
          "type": "string"
        }
      ],
      "name": "PostCreated",
      "type": "event"
    },
    {
      "anonymous": false,
      "inputs": [
        {
          "indexed": false,
          "internalType": "uint256",
          "name": "id",
          "type": "uint256"
        }
      ],
      "name": "PostDeleted",
      "type": "event"
    },
    {
      "anonymous": false,
      "inputs": [
        {
          "indexed": false,
          "internalType": "uint256",
          "name": "id",
          "type": "uint256"
        },
        {
          "indexed": false,
          "internalType": "string",
          "name": "title",
          "type": "string"
        },
        {
          "indexed": false,
          "internalType": "string",
          "name": "body",
          "type": "string"
        }
      ],
      "name": "PostUpdated",
      "type": "event"
    },
    {
      "inputs": [],
      "name": "owner",
      "outputs": [
        {
          "internalType": "address",
          "name": "",
          "type": "address"
        }
      ],
      "stateMutability": "view",
      "type": "function",
      "constant": true
    },
    {
      "inputs": [
        {
          "internalType": "string",
          "name": "_title",
          "type": "string"
        },
        {
          "internalType": "string",
          "name": "_body",
          "type": "string"
        }
      ],
      "name": "createPost",
      "outputs": [],
      "stateMutability": "nonpayable",
      "type": "function"
    },
    {
      "inputs": [
        {
          "internalType": "uint256",
          "name": "_id",
          "type": "uint256"
        }
      ],
      "name": "readPost",
      "outputs": [
        {
          "internalType": "uint256",
          "name": "",
          "type": "uint256"
        },
        {
          "internalType": "string",
          "name": "",
          "type": "string"
        },
        {
          "internalType": "string",
          "name": "",
          "type": "string"
        }
      ],
      "stateMutability": "view",
      "type": "function",
      "constant": true
    },
    {
      "inputs": [],
      "name": "listPosts",
      "outputs": [
        {
          "components": [
            {
              "internalType": "uint256",
              "name": "id",
              "type": "uint256"
            },
            {
              "internalType": "string",
              "name": "title",
              "type": "string"
            },
            {
              "internalType": "string",
              "name": "body",
              "type": "string"
            }
          ],
          "internalType": "struct Blog.Post[]",
          "name": "",
          "type": "tuple[]"
        }
      ],
      "stateMutability": "view",
      "type": "function",
      "constant": true
    },
    {
      "inputs": [
        {
          "internalType": "uint256",
          "name": "_id",
          "type": "uint256"
        },
        {
          "internalType": "string",
          "name": "_title",
          "type": "string"
        },
        {
          "internalType": "string",
          "name": "_body",
          "type": "string"
        }
      ],
      "name": "updatePost",
      "outputs": [],
      "stateMutability": "nonpayable",
      "type": "function"
    },
    {
      "inputs": [
        {
          "internalType": "uint256",
          "name": "_id",
          "type": "uint256"
        }
      ],
      "name": "deletePost",
      "outputs": [],
      "stateMutability": "nonpayable",
      "type": "function"
    }
  ],
  "bytecode": "0x608060405234801561000f575f80fd5b503360025f6101000a81548173ffffffffffffffffffffffffffffffffffffffff021916908373ffffffffffffffffffffffffffffffffffffffff1602179055506115bb8061005d5f395ff3fe608060405234801561000f575f80fd5b5060043610610060575f3560e01c8063094cd5ee14610064578063256dd92e14610080578063392338f51461009e57806366d1cac9146100ba5780638da5cb5b146100d6578063ca6f69f5146100f4575b5f80fd5b61007e60048036038101906100799190610a82565b610126565b005b6100886103a2565b6040516100959190610c55565b60405180910390f35b6100b860048036038101906100b39190610da1565b610526565b005b6100d460048036038101906100cf9190610e17565b61069d565b005b6100de610810565b6040516100eb9190610ede565b60405180910390f35b61010e60048036038101906101099190610a82565b610835565b60405161011d93929190610f4e565b60405180910390f35b60025f9054906101000a900473ffffffffffffffffffffffffffffffffffffffff1673ffffffffffffffffffffffffffffffffffffffff163373ffffffffffffffffffffffffffffffffffffffff16146101b5576040517f08c379a00000000000000000000000000000000000000000000000000000000081526004016101ac90611001565b60405180910390fd5b5f8054905081106101fb576040517f08c379a00000000000000000000000000000000000000000000000000000000081526004016101f290611069565b60405180910390fd5b60015f8281526020019081526020015f205f9054906101000a900460ff16610258576040517f08c379a000000000000000000000000000000000000000000000000000000000815260040161024f906110d1565b60405180910390fd5b60015f80549050610269919061111c565b8110156102f4575f60015f80549050610282919061111c565b815481106102935761029261114f565b5b905f5260205f2090600302015f82815481106102b2576102b161114f565b5b905f5260205f2090600302015f820154815f0155600182018160010190816102da919061138b565b50600282018160020190816102ef919061138b565b509050505b5f80548061030557610304611470565b5b600190038181905f5260205f2090600302015f8082015f9055600182015f61032d91906109e6565b600282015f61033c91906109e6565b505090555f60015f8381526020019081526020015f205f6101000a81548160ff0219169083151502179055507f32d67e2131cd025eb20e7256680e338dedbe17b28943a11681860a9271ad119d81604051610397919061149d565b60405180910390a150565b60605f805480602002602001604051908101604052809291908181526020015f905b8282101561051d578382905f5260205f2090600302016040518060600160405290815f82015481526020016001820180546103fe906111a9565b80601f016020809104026020016040519081016040528092919081815260200182805461042a906111a9565b80156104755780601f1061044c57610100808354040283529160200191610475565b820191905f5260205f20905b81548152906001019060200180831161045857829003601f168201915b5050505050815260200160028201805461048e906111a9565b80601f01602080910402602001604051908101604052809291908181526020018280546104ba906111a9565b80156105055780601f106104dc57610100808354040283529160200191610505565b820191905f5260205f20905b8154815290600101906020018083116104e857829003601f168201915b505050505081525050815260200190600101906103c4565b50505050905090565b60025f9054906101000a900473ffffffffffffffffffffffffffffffffffffffff1673ffffffffffffffffffffffffffffffffffffffff163373ffffffffffffffffffffffffffffffffffffffff16146105b5576040517f08c379a00000000000000000000000000000000000000000000000000000000081526004016105ac90611001565b60405180910390fd5b5f808054905090505f604051806060016040528083815260200185815260200184815250908060018154018082558091505060019003905f5260205f2090600302015f909190919091505f820151815f0155602082015181600101908161061c91906114b6565b50604082015181600201908161063291906114b6565b5050506001805f8381526020019081526020015f205f6101000a81548160ff0219169083151502179055507fe6851f0b99a9d86e5d68a97f65218980851216ce297f789c6b6b7e82ca1d90c881848460405161069093929190610f4e565b60405180910390a1505050565b60025f9054906101000a900473ffffffffffffffffffffffffffffffffffffffff1673ffffffffffffffffffffffffffffffffffffffff163373ffffffffffffffffffffffffffffffffffffffff161461072c576040517f08c379a000000000000000000000000000000000000000000000000000000000815260040161072390611001565b60405180910390fd5b60015f8481526020019081526020015f205f9054906101000a900460ff16610789576040517f08c379a0000000000000000000000000000000000000000000000000000000008152600401610780906110d1565b60405180910390fd5b5f80848154811061079d5761079c61114f565b5b905f5260205f2090600302019050828160010190816107bc91906114b6565b50818160020190816107ce91906114b6565b507ffcc96ab7382d1c4bc7fd817ee5ec518a9bae200bb3d1396c725178b00a2488b484848460405161080293929190610f4e565b60405180910390a150505050565b60025f9054906101000a900473ffffffffffffffffffffffffffffffffffffffff1681565b5f60608060015f8581526020019081526020015f205f9054906101000a900460ff16610896576040517f08c379a000000000000000000000000000000000000000000000000000000000815260040161088d906110d1565b60405180910390fd5b5f8085815481106108aa576108a961114f565b5b905f5260205f2090600302019050805f015481600101826002018180546108d0906111a9565b80601f01602080910402602001604051908101604052809291908181526020018280546108fc906111a9565b80156109475780601f1061091e57610100808354040283529160200191610947565b820191905f5260205f20905b81548152906001019060200180831161092a57829003601f168201915b5050505050915080805461095a906111a9565b80601f0160208091040260200160405190810160405280929190818152602001828054610986906111a9565b80156109d15780601f106109a8576101008083540402835291602001916109d1565b820191905f5260205f20905b8154815290600101906020018083116109b457829003601f168201915b50505050509050935093509350509193909250565b5080546109f2906111a9565b5f825580601f10610a035750610a20565b601f0160209004905f5260205f2090810190610a1f9190610a23565b5b50565b5b80821115610a3a575f815f905550600101610a24565b5090565b5f604051905090565b5f80fd5b5f80fd5b5f819050919050565b610a6181610a4f565b8114610a6b575f80fd5b50565b5f81359050610a7c81610a58565b92915050565b5f60208284031215610a9757610a96610a47565b5b5f610aa484828501610a6e565b91505092915050565b5f81519050919050565b5f82825260208201905092915050565b5f819050602082019050919050565b610adf81610a4f565b82525050565b5f81519050919050565b5f82825260208201905092915050565b5f5b83811015610b1c578082015181840152602081019050610b01565b5f8484015250505050565b5f601f19601f8301169050919050565b5f610b4182610ae5565b610b4b8185610aef565b9350610b5b818560208601610aff565b610b6481610b27565b840191505092915050565b5f606083015f830151610b845f860182610ad6565b5060208301518482036020860152610b9c8282610b37565b91505060408301518482036040860152610bb68282610b37565b9150508091505092915050565b5f610bce8383610b6f565b905092915050565b5f602082019050919050565b5f610bec82610aad565b610bf68185610ab7565b935083602082028501610c0885610ac7565b805f5b85811015610c435784840389528151610c248582610bc3565b9450610c2f83610bd6565b925060208a01995050600181019050610c0b565b50829750879550505050505092915050565b5f6020820190508181035f830152610c6d8184610be2565b905092915050565b5f80fd5b5f80fd5b7f4e487b71000000000000000000000000000000000000000000000000000000005f52604160045260245ffd5b610cb382610b27565b810181811067ffffffffffffffff82111715610cd257610cd1610c7d565b5b80604052505050565b5f610ce4610a3e565b9050610cf08282610caa565b919050565b5f67ffffffffffffffff821115610d0f57610d0e610c7d565b5b610d1882610b27565b9050602081019050919050565b828183375f83830152505050565b5f610d45610d4084610cf5565b610cdb565b905082815260208101848484011115610d6157610d60610c79565b5b610d6c848285610d25565b509392505050565b5f82601f830112610d8857610d87610c75565b5b8135610d98848260208601610d33565b91505092915050565b5f8060408385031215610db757610db6610a47565b5b5f83013567ffffffffffffffff811115610dd457610dd3610a4b565b5b610de085828601610d74565b925050602083013567ffffffffffffffff811115610e0157610e00610a4b565b5b610e0d85828601610d74565b9150509250929050565b5f805f60608486031215610e2e57610e2d610a47565b5b5f610e3b86828701610a6e565b935050602084013567ffffffffffffffff811115610e5c57610e5b610a4b565b5b610e6886828701610d74565b925050604084013567ffffffffffffffff811115610e8957610e88610a4b565b5b610e9586828701610d74565b9150509250925092565b5f73ffffffffffffffffffffffffffffffffffffffff82169050919050565b5f610ec882610e9f565b9050919050565b610ed881610ebe565b82525050565b5f602082019050610ef15f830184610ecf565b92915050565b610f0081610a4f565b82525050565b5f82825260208201905092915050565b5f610f2082610ae5565b610f2a8185610f06565b9350610f3a818560208601610aff565b610f4381610b27565b840191505092915050565b5f606082019050610f615f830186610ef7565b8181036020830152610f738185610f16565b90508181036040830152610f878184610f16565b9050949350505050565b7f4f6e6c7920746865206f776e65722063616e20706572666f726d2074686973205f8201527f616374696f6e2e00000000000000000000000000000000000000000000000000602082015250565b5f610feb602783610f06565b9150610ff682610f91565b604082019050919050565b5f6020820190508181035f83015261101881610fdf565b9050919050565b7f496e646578206f7574206f6620626f756e6473000000000000000000000000005f82015250565b5f611053601383610f06565b915061105e8261101f565b602082019050919050565b5f6020820190508181035f83015261108081611047565b9050919050565b7f506f737420646f6573206e6f742065786973742e0000000000000000000000005f82015250565b5f6110bb601483610f06565b91506110c682611087565b602082019050919050565b5f6020820190508181035f8301526110e8816110af565b9050919050565b7f4e487b71000000000000000000000000000000000000000000000000000000005f52601160045260245ffd5b5f61112682610a4f565b915061113183610a4f565b9250828203905081811115611149576111486110ef565b5b92915050565b7f4e487b71000000000000000000000000000000000000000000000000000000005f52603260045260245ffd5b7f4e487b71000000000000000000000000000000000000000000000000000000005f52602260045260245ffd5b5f60028204905060018216806111c057607f821691505b6020821081036111d3576111d261117c565b5b50919050565b5f815490506111e7816111a9565b9050919050565b5f819050815f5260205f209050919050565b5f6020601f8301049050919050565b5f82821b905092915050565b5f6008830261124a7fffffffffffffffffffffffffffffffffffffffffffffffffffffffffffffffff8261120f565b611254868361120f565b95508019841693508086168417925050509392505050565b5f819050919050565b5f61128f61128a61128584610a4f565b61126c565b610a4f565b9050919050565b5f819050919050565b6112a883611275565b6112bc6112b482611296565b84845461121b565b825550505050565b5f90565b6112d06112c4565b6112db81848461129f565b505050565b5b818110156112fe576112f35f826112c8565b6001810190506112e1565b5050565b601f82111561134357611314816111ee565b61131d84611200565b8101602085101561132c578190505b61134061133885611200565b8301826112e0565b50505b505050565b5f82821c905092915050565b5f6113635f1984600802611348565b1980831691505092915050565b5f61137b8383611354565b9150826002028217905092915050565b81810361139957505061146e565b6113a2826111d9565b67ffffffffffffffff8111156113bb576113ba610c7d565b5b6113c582546111a9565b6113d0828285611302565b5f601f8311600181146113fd575f84156113eb578287015490505b6113f58582611370565b865550611467565b601f19841661140b876111ee565b9650611416866111ee565b5f5b8281101561143d57848901548255600182019150600185019450602081019050611418565b8683101561145a5784890154611456601f891682611354565b8355505b6001600288020188555050505b5050505050505b565b7f4e487b71000000000000000000000000000000000000000000000000000000005f52603160045260245ffd5b5f6020820190506114b05f830184610ef7565b92915050565b6114bf82610ae5565b67ffffffffffffffff8111156114d8576114d7610c7d565b5b6114e282546111a9565b6114ed828285611302565b5f60209050601f83116001811461151e575f841561150c578287015190505b6115168582611370565b86555061157d565b601f19841661152c866111ee565b5f5b828110156115535784890151825560018201915060208501945060208101905061152e565b86831015611570578489015161156c601f891682611354565b8355505b6001600288020188555050505b50505050505056fea2646970667358221220d1e6adf9e784e6b8ab09c2cabe2cd0e9a544a1fde075f891d8f52984ab88960264736f6c63430008180033",
  "immutableReferences": {},
  "source": "// SPDX-License-Identifier: MIT\npragma solidity >=0.4.22 <0.9.0;\n\ncontract Blog {\n    // Define the Post struct with two attributes\n    struct Post {\n        uint id;\n        string title;\n        string body;\n    }\n\n    // State variable to store posts\n    Post[] private posts;\n\n    // Mapping to keep track of post existence\n    mapping(uint => bool) private postExists;\n\n    address public owner;\n\n    // this function runs when the contract is deployed\n    constructor() {\n        // set owner is msg.sender\n        owner = msg.sender;\n    }\n\n    // Modifier to restrict certain operations to the owner only\n    modifier onlyOwner() {\n        require(msg.sender == owner, \"Only the owner can perform this action.\");\n        _;\n    }\n\n    // Event declarations for frontend interaction\n    event PostCreated(uint id, string title, string body);\n    event PostUpdated(uint id, string title, string body);\n    event PostDeleted(uint id);\n\n    // Function to create a new post\n    function createPost(string memory _title, string memory _body) public onlyOwner {\n        uint postId = posts.length; // Incrementing ID for each new post\n        posts.push(Post(postId, _title, _body));\n        postExists[postId] = true;\n        emit PostCreated(postId, _title, _body);\n    }\n\n    // Function to read a post by ID\n    function readPost(uint _id) public view returns (uint, string memory, string memory) {\n        require(postExists[_id], \"Post does not exist.\");\n        Post storage post = posts[_id];\n        return (post.id, post.title, post.body);\n    }\n\n    // Function to list all posts\n    function listPosts() public view returns (Post[] memory) {\n        return posts;\n    }\n\n    // Function to update a post\n    function updatePost(uint _id, string memory _title, string memory _body) public onlyOwner {\n        require(postExists[_id], \"Post does not exist.\");\n        Post storage post = posts[_id];\n        post.title = _title;\n        post.body = _body;\n        emit PostUpdated(_id, _title, _body);\n    }\n\n    // Function to delete a post\n    function deletePost(uint _id) public onlyOwner {\n        require(_id < posts.length, \"Index out of bounds\");\n        require(postExists[_id], \"Post does not exist.\");\n\n        // Move the last element to the slot of the one being removed if it's not the same element\n        if (_id < posts.length - 1) {\n            posts[_id] = posts[posts.length - 1];\n        }\n\n        // Remove the last element\n        posts.pop();\n\n        // Mark the post as non-existent\n        postExists[_id] = false;\n\n        // Emitting an event for deletion\n        emit PostDeleted(_id);\n    }\n}\n",
  "sourcePath": "D:\\Information Technology\\blockchain-smart-contract\\Solidity\\TruffleProject\\blog-dapp\\contracts\\Blog.sol",
  "compiler": {
    "name": "solc",
    "version": "0.8.24+commit.e11b9ed9.Emscripten.clang"
  },
  "schemaVersion": "3.4.16",
  "updatedAt": "2024-02-19T10:45:31.014Z",
  "networkType": "ethereum",
  "devdoc": {
    "kind": "dev",
    "methods": {},
    "version": 1
  },
  "userdoc": {
    "kind": "user",
    "methods": {},
    "version": 1
  }
}